{
  "_format": "hh-sol-artifact-1",
  "contractName": "SentinelCore",
  "sourceName": "src/SentinelCore.sol",
  "abi": [
    {
      "inputs": [
        {
          "internalType": "address",
          "name": "_owner",
          "type": "address"
        },
        {
          "internalType": "address",
          "name": "_agentWallet",
          "type": "address"
        },
        {
          "internalType": "string[]",
          "name": "_protocolNames",
          "type": "string[]"
        },
        {
          "internalType": "address[]",
          "name": "_protocolContracts",
          "type": "address[]"
        }
      ],
      "stateMutability": "nonpayable",
      "type": "constructor"
    },
    {
      "inputs": [
        {
          "internalType": "address",
          "name": "owner",
          "type": "address"
        }
      ],
      "name": "OwnableInvalidOwner",
      "type": "error"
    },
    {
      "inputs": [
        {
          "internalType": "address",
          "name": "account",
          "type": "address"
        }
      ],
      "name": "OwnableUnauthorizedAccount",
      "type": "error"
    },
    {
      "anonymous": false,
      "inputs": [
        {
          "indexed": true,
          "internalType": "address",
          "name": "oldAgent",
          "type": "address"
        },
        {
          "indexed": true,
          "internalType": "address",
          "name": "newAgent",
          "type": "address"
        }
      ],
      "name": "AgentWalletUpdated",
      "type": "event"
    },
    {
      "anonymous": false,
      "inputs": [
        {
          "indexed": true,
          "internalType": "uint256",
          "name": "alertId",
          "type": "uint256"
        },
        {
          "indexed": true,
          "internalType": "uint256",
          "name": "protocolIndex",
          "type": "uint256"
        },
        {
          "indexed": false,
          "internalType": "uint256",
          "name": "exposureUSD",
          "type": "uint256"
        },
        {
          "indexed": false,
          "internalType": "uint8",
          "name": "riskScore",
          "type": "uint8"
        },
        {
          "indexed": false,
          "internalType": "bool",
          "name": "isCritical",
          "type": "bool"
        },
        {
          "indexed": false,
          "internalType": "uint256",
          "name": "timestamp",
          "type": "uint256"
        }
      ],
      "name": "AlertFired",
      "type": "event"
    },
    {
      "anonymous": false,
      "inputs": [
        {
          "indexed": true,
          "internalType": "uint256",
          "name": "actionId",
          "type": "uint256"
        },
        {
          "indexed": true,
          "internalType": "uint256",
          "name": "positionId",
          "type": "uint256"
        },
        {
          "indexed": true,
          "internalType": "uint256",
          "name": "protocol",
          "type": "uint256"
        },
        {
          "indexed": false,
          "internalType": "uint256",
          "name": "amountUSD",
          "type": "uint256"
        },
        {
          "indexed": false,
          "internalType": "string",
          "name": "action",
          "type": "string"
        },
        {
          "indexed": false,
          "internalType": "uint256",
          "name": "timestamp",
          "type": "uint256"
        }
      ],
      "name": "DefensiveActionTaken",
      "type": "event"
    },
    {
      "anonymous": false,
      "inputs": [
        {
          "indexed": true,
          "internalType": "uint256",
          "name": "index",
          "type": "uint256"
        },
        {
          "indexed": false,
          "internalType": "uint256",
          "name": "oldExposure",
          "type": "uint256"
        },
        {
          "indexed": false,
          "internalType": "uint256",
          "name": "newExposure",
          "type": "uint256"
        }
      ],
      "name": "ExposureUpdated",
      "type": "event"
    },
    {
      "anonymous": false,
      "inputs": [
        {
          "indexed": false,
          "internalType": "uint256",
          "name": "amount",
          "type": "uint256"
        },
        {
          "indexed": false,
          "internalType": "uint256",
          "name": "remaining",
          "type": "uint256"
        }
      ],
      "name": "GasConsumed",
      "type": "event"
    },
    {
      "anonymous": false,
      "inputs": [
        {
          "indexed": true,
          "internalType": "address",
          "name": "funder",
          "type": "address"
        },
        {
          "indexed": false,
          "internalType": "uint256",
          "name": "amount",
          "type": "uint256"
        },
        {
          "indexed": false,
          "internalType": "uint256",
          "name": "newBalance",
          "type": "uint256"
        }
      ],
      "name": "GasReservoirFunded",
      "type": "event"
    },
    {
      "anonymous": false,
      "inputs": [
        {
          "indexed": true,
          "internalType": "address",
          "name": "previousOwner",
          "type": "address"
        },
        {
          "indexed": true,
          "internalType": "address",
          "name": "newOwner",
          "type": "address"
        }
      ],
      "name": "OwnershipTransferred",
      "type": "event"
    },
    {
      "anonymous": false,
      "inputs": [
        {
          "indexed": true,
          "internalType": "uint256",
          "name": "positionId",
          "type": "uint256"
        },
        {
          "indexed": true,
          "internalType": "uint256",
          "name": "protocol",
          "type": "uint256"
        },
        {
          "indexed": false,
          "internalType": "uint256",
          "name": "amountUSD",
          "type": "uint256"
        }
      ],
      "name": "PositionRegistered",
      "type": "event"
    },
    {
      "anonymous": false,
      "inputs": [
        {
          "indexed": true,
          "internalType": "uint256",
          "name": "proposalId",
          "type": "uint256"
        },
        {
          "indexed": true,
          "internalType": "uint256",
          "name": "protocol",
          "type": "uint256"
        },
        {
          "indexed": false,
          "internalType": "bytes32",
          "name": "descriptionHash",
          "type": "bytes32"
        },
        {
          "indexed": false,
          "internalType": "uint256",
          "name": "timestamp",
          "type": "uint256"
        }
      ],
      "name": "ProposalDrafted",
      "type": "event"
    },
    {
      "anonymous": false,
      "inputs": [
        {
          "indexed": true,
          "internalType": "uint256",
          "name": "index",
          "type": "uint256"
        },
        {
          "indexed": false,
          "internalType": "string",
          "name": "name",
          "type": "string"
        },
        {
          "indexed": false,
          "internalType": "address",
          "name": "contractAddr",
          "type": "address"
        }
      ],
      "name": "ProtocolAdded",
      "type": "event"
    },
    {
      "anonymous": false,
      "inputs": [
        {
          "indexed": true,
          "internalType": "uint256",
          "name": "queryId",
          "type": "uint256"
        },
        {
          "indexed": true,
          "internalType": "address",
          "name": "requester",
          "type": "address"
        },
        {
          "indexed": false,
          "internalType": "uint256",
          "name": "protocol",
          "type": "uint256"
        },
        {
          "indexed": false,
          "internalType": "uint8",
          "name": "riskScore",
          "type": "uint8"
        },
        {
          "indexed": false,
          "internalType": "bytes32",
          "name": "responseHash",
          "type": "bytes32"
        },
        {
          "indexed": false,
          "internalType": "uint256",
          "name": "timestamp",
          "type": "uint256"
        }
      ],
      "name": "RiskQueryServed",
      "type": "event"
    },
    {
      "inputs": [],
      "name": "ALERT_THRESHOLD_USD",
      "outputs": [
        {
          "internalType": "uint256",
          "name": "",
          "type": "uint256"
        }
      ],
      "stateMutability": "view",
      "type": "function"
    },
    {
      "inputs": [],
      "name": "CRITICAL_THRESHOLD_USD",
      "outputs": [
        {
          "internalType": "uint256",
          "name": "",
          "type": "uint256"
        }
      ],
      "stateMutability": "view",
      "type": "function"
    },
    {
      "inputs": [],
      "name": "GAS_RESERVOIR_MIN",
      "outputs": [
        {
          "internalType": "uint256",
          "name": "",
          "type": "uint256"
        }
      ],
      "stateMutability": "view",
      "type": "function"
    },
    {
      "inputs": [],
      "name": "GAS_ROUTING_BPS",
      "outputs": [
        {
          "internalType": "uint256",
          "name": "",
          "type": "uint256"
        }
      ],
      "stateMutability": "view",
      "type": "function"
    },
    {
      "inputs": [],
      "name": "MAX_DEFENSIVE_POSITION",
      "outputs": [
        {
          "internalType": "uint256",
          "name": "",
          "type": "uint256"
        }
      ],
      "stateMutability": "view",
      "type": "function"
    },
    {
      "inputs": [
        {
          "internalType": "string",
          "name": "name",
          "type": "string"
        },
        {
          "internalType": "address",
          "name": "contractAddr",
          "type": "address"
        }
      ],
      "name": "addProtocol",
      "outputs": [],
      "stateMutability": "nonpayable",
      "type": "function"
    },
    {
      "inputs": [],
      "name": "addToGasReservoir",
      "outputs": [],
      "stateMutability": "payable",
      "type": "function"
    },
    {
      "inputs": [],
      "name": "agentWallet",
      "outputs": [
        {
          "internalType": "address",
          "name": "",
          "type": "address"
        }
      ],
      "stateMutability": "view",
      "type": "function"
    },
    {
      "inputs": [
        {
          "internalType": "uint256",
          "name": "positionId",
          "type": "uint256"
        }
      ],
      "name": "closePosition",
      "outputs": [],
      "stateMutability": "nonpayable",
      "type": "function"
    },
    {
      "inputs": [
        {
          "internalType": "uint256",
          "name": "amount",
          "type": "uint256"
        }
      ],
      "name": "consumeGas",
      "outputs": [],
      "stateMutability": "nonpayable",
      "type": "function"
    },
    {
      "inputs": [
        {
          "internalType": "uint256",
          "name": "protocolIndex",
          "type": "uint256"
        }
      ],
      "name": "deactivateProtocol",
      "outputs": [],
      "stateMutability": "nonpayable",
      "type": "function"
    },
    {
      "inputs": [],
      "name": "emergencyDrainReservoir",
      "outputs": [],
      "stateMutability": "nonpayable",
      "type": "function"
    },
    {
      "inputs": [
        {
          "internalType": "uint256",
          "name": "protocolIndex",
          "type": "uint256"
        },
        {
          "internalType": "uint8",
          "name": "riskScore",
          "type": "uint8"
        }
      ],
      "name": "fireAlert",
      "outputs": [
        {
          "internalType": "uint256",
          "name": "alertId",
          "type": "uint256"
        }
      ],
      "stateMutability": "nonpayable",
      "type": "function"
    },
    {
      "inputs": [],
      "name": "gasReservoir",
      "outputs": [
        {
          "internalType": "uint256",
          "name": "",
          "type": "uint256"
        }
      ],
      "stateMutability": "view",
      "type": "function"
    },
    {
      "inputs": [
        {
          "internalType": "uint256",
          "name": "positionId",
          "type": "uint256"
        }
      ],
      "name": "getPosition",
      "outputs": [
        {
          "components": [
            {
              "internalType": "uint256",
              "name": "protocol",
              "type": "uint256"
            },
            {
              "internalType": "uint256",
              "name": "amountUSD",
              "type": "uint256"
            },
            {
              "internalType": "bool",
              "name": "active",
              "type": "bool"
            },
            {
              "internalType": "uint256",
              "name": "openedAt",
              "type": "uint256"
            }
          ],
          "internalType": "struct SentinelCore.SentinelPosition",
          "name": "",
          "type": "tuple"
        }
      ],
      "stateMutability": "view",
      "type": "function"
    },
    {
      "inputs": [
        {
          "internalType": "uint256",
          "name": "index",
          "type": "uint256"
        }
      ],
      "name": "getProtocol",
      "outputs": [
        {
          "components": [
            {
              "internalType": "string",
              "name": "name",
              "type": "string"
            },
            {
              "internalType": "address",
              "name": "contractAddr",
              "type": "address"
            },
            {
              "internalType": "uint256",
              "name": "exposureUSD",
              "type": "uint256"
            },
            {
              "internalType": "bool",
              "name": "active",
              "type": "bool"
            }
          ],
          "internalType": "struct SentinelCore.MonitoredProtocol",
          "name": "",
          "type": "tuple"
        }
      ],
      "stateMutability": "view",
      "type": "function"
    },
    {
      "inputs": [
        {
          "internalType": "uint256",
          "name": "positionId",
          "type": "uint256"
        },
        {
          "internalType": "string",
          "name": "action",
          "type": "string"
        }
      ],
      "name": "logDefensiveAction",
      "outputs": [
        {
          "internalType": "uint256",
          "name": "actionId",
          "type": "uint256"
        }
      ],
      "stateMutability": "nonpayable",
      "type": "function"
    },
    {
      "inputs": [
        {
          "internalType": "uint256",
          "name": "proposalId",
          "type": "uint256"
        },
        {
          "internalType": "uint256",
          "name": "protocolIndex",
          "type": "uint256"
        },
        {
          "internalType": "string",
          "name": "description",
          "type": "string"
        }
      ],
      "name": "logProposalDraft",
      "outputs": [],
      "stateMutability": "nonpayable",
      "type": "function"
    },
    {
      "inputs": [
        {
          "internalType": "uint256",
          "name": "queryId",
          "type": "uint256"
        },
        {
          "internalType": "address",
          "name": "requester",
          "type": "address"
        },
        {
          "internalType": "uint256",
          "name": "protocolIndex",
          "type": "uint256"
        },
        {
          "internalType": "uint8",
          "name": "riskScore",
          "type": "uint8"
        },
        {
          "internalType": "bytes32",
          "name": "responseHash",
          "type": "bytes32"
        }
      ],
      "name": "logRiskQuery",
      "outputs": [],
      "stateMutability": "payable",
      "type": "function"
    },
    {
      "inputs": [],
      "name": "owner",
      "outputs": [
        {
          "internalType": "address",
          "name": "",
          "type": "address"
        }
      ],
      "stateMutability": "view",
      "type": "function"
    },
    {
      "inputs": [],
      "name": "protocolCount",
      "outputs": [
        {
          "internalType": "uint256",
          "name": "",
          "type": "uint256"
        }
      ],
      "stateMutability": "view",
      "type": "function"
    },
    {
      "inputs": [
        {
          "internalType": "uint256",
          "name": "",
          "type": "uint256"
        }
      ],
      "name": "protocols",
      "outputs": [
        {
          "internalType": "string",
          "name": "name",
          "type": "string"
        },
        {
          "internalType": "address",
          "name": "contractAddr",
          "type": "address"
        },
        {
          "internalType": "uint256",
          "name": "exposureUSD",
          "type": "uint256"
        },
        {
          "internalType": "bool",
          "name": "active",
          "type": "bool"
        }
      ],
      "stateMutability": "view",
      "type": "function"
    },
    {
      "inputs": [
        {
          "internalType": "uint256",
          "name": "positionId",
          "type": "uint256"
        },
        {
          "internalType": "uint256",
          "name": "protocolIndex",
          "type": "uint256"
        },
        {
          "internalType": "uint256",
          "name": "amountUSD",
          "type": "uint256"
        }
      ],
      "name": "registerPosition",
      "outputs": [],
      "stateMutability": "nonpayable",
      "type": "function"
    },
    {
      "inputs": [],
      "name": "renounceOwnership",
      "outputs": [],
      "stateMutability": "nonpayable",
      "type": "function"
    },
    {
      "inputs": [
        {
          "internalType": "uint256",
          "name": "",
          "type": "uint256"
        }
      ],
      "name": "sentinelPositions",
      "outputs": [
        {
          "internalType": "uint256",
          "name": "protocol",
          "type": "uint256"
        },
        {
          "internalType": "uint256",
          "name": "amountUSD",
          "type": "uint256"
        },
        {
          "internalType": "bool",
          "name": "active",
          "type": "bool"
        },
        {
          "internalType": "uint256",
          "name": "openedAt",
          "type": "uint256"
        }
      ],
      "stateMutability": "view",
      "type": "function"
    },
    {
      "inputs": [
        {
          "internalType": "address",
          "name": "newAgent",
          "type": "address"
        }
      ],
      "name": "setAgentWallet",
      "outputs": [],
      "stateMutability": "nonpayable",
      "type": "function"
    },
    {
      "inputs": [],
      "name": "totalAlerts",
      "outputs": [
        {
          "internalType": "uint256",
          "name": "",
          "type": "uint256"
        }
      ],
      "stateMutability": "view",
      "type": "function"
    },
    {
      "inputs": [],
      "name": "totalDefensiveActions",
      "outputs": [
        {
          "internalType": "uint256",
          "name": "",
          "type": "uint256"
        }
      ],
      "stateMutability": "view",
      "type": "function"
    },
    {
      "inputs": [
        {
          "internalType": "address",
          "name": "newOwner",
          "type": "address"
        }
      ],
      "name": "transferOwnership",
      "outputs": [],
      "stateMutability": "nonpayable",
      "type": "function"
    },
    {
      "inputs": [
        {
          "internalType": "uint256",
          "name": "protocolIndex",
          "type": "uint256"
        },
        {
          "internalType": "uint256",
          "name": "newExposureUSD",
          "type": "uint256"
        }
      ],
      "name": "updateExposure",
      "outputs": [],
      "stateMutability": "nonpayable",
      "type": "function"
    },
    {
      "stateMutability": "payable",
      "type": "receive"
    }
  ],
  "bytecode": "0x60806040523461060f57612163803803806100198161069d565b92833981019060808183031261060f57610032816106c2565b61003e602083016106c2565b60408301516001600160401b03811161060f5783019284601f8501121561060f57835161007261006d826106d6565b61069d565b9460208087848152019260051b8201019087821161060f5760208101925b82841061061457505050506060810151906001600160401b03821161060f57019380601f8601121561060f5784516100ca61006d826106d6565b9560208088848152019260051b82010192831161060f57602001905b8282106105f7575050506001600160a01b038216156105de57600080546001600160a01b039384166001600160a01b03198216811783556040519490929116907f8be0079c531659141344cd1fd0a4f28419497f9722a3daafe3b4186f6b6457e09080a36001600160a01b031690811561059c5750815183510361054b57600180546001600160a01b03191682179055829060007f71e83775512a9adc081ce3c2e2ba8c8af84c6b5168b472a8c5336f56fdc1a50e8180a36000915b805183101561053c576101b58382610710565b51926001600160a01b036101c98285610710565b5116938051156104ed57841561049c57600254604051959091906001600160401b0360808801908111908811176104705760808701604052818752806020880152600060408801526001606088015268010000000000000000831015610470576001830180600255831015610486576002600052865180519097907f405787fa12a823e0f2b7631cc41b3ba8828b3321ca811111fa75cd3aa3bb5ace906001600160401b038111610470578560021b820154600181811c91168015610466575b602082101461045057601f8111610407575b50602099601f8211600114610378576003600080516020612143833981519152969593836060969460019c9d9e889560009261036d575b505060001982851b1c1916908c1b1760028a901b8201555b8a8960021b8201018b8060a01b036020860151168c8060a01b0319825416179055604084015160028a811b830101558860021b0101910151151560ff801983541691161790556040519283916040835261035382518093816040870152602087870191016106ed565b6020830152601f01601f19168101030190a20191906101a2565b015190508f806102d2565b998660021b830160005260206000209a60005b601f19841681106103ef5750600080516020612143833981519152969593600184819c9d9e60609896956003958a97601f198116106103d7575b505050811b018960021b8201556102ea565b015160001983871b60f8161c191690558f80806103c5565b818301518d556001909c019b6020928301920161038b565b8660021b83016000526020600020601f830160051c810160208410610449575b601f830160051c8201811061043d57505061029b565b60008155600101610427565b5080610427565b634e487b7160e01b600052602260045260246000fd5b90607f1690610289565b634e487b7160e01b600052604160045260246000fd5b634e487b7160e01b600052603260045260246000fd5b60405162461bcd60e51b815260206004820152602360248201527f53656e74696e656c436f72653a207a65726f20636f6e7472616374206164647260448201526265737360e81b6064820152608490fd5b60405162461bcd60e51b815260206004820152602160248201527f53656e74696e656c436f72653a20656d7074792070726f746f636f6c206e616d6044820152606560f81b6064820152608490fd5b604051611a1e90816107258239f35b60405162461bcd60e51b815260206004820152602360248201527f53656e74696e656c436f72653a206172726179206c656e677468206d69736d616044820152620e8c6d60eb1b6064820152608490fd5b62461bcd60e51b815260206004820181905260248201527f53656e74696e656c436f72653a207a65726f206167656e7420616464726573736044820152606490fd5b604051631e4fbdf760e01b815260006004820152602490fd5b60208091610604846106c2565b8152019101906100e6565b600080fd5b83516001600160401b03811161060f5782019089603f8301121561060f576020820151906001600160401b03821161068857610659601f8301601f191660200161069d565b8281528b6040848601011161060f5761067d602094938594604086850191016106ed565b815201930192610090565b60246000634e487b7160e01b81526041600452fd5b6040519190601f01601f191682016001600160401b0381118382101761047057604052565b51906001600160a01b038216820361060f57565b6001600160401b0381116104705760051b60200190565b60005b8381106107005750506000910152565b81810151838201526020016106f0565b80518210156104865760209160051b01019056fe60808060405260049081361015610029575b5050361561001e57600080fd5b61002734611978565b005b60003560e01c90816307c72faa146114e9575080631035c045146114cb57806314a895b2146114a95780633f6dfdbc146114805780634f2b85db1461146257806357aec4c5146114415780636100b6ae14611335578063715018a6146112dc578063783ec7f0146111cc5780637d4816e21461118d5780637fddedb81461113b57806386fb1696146110ab578063882b5e581461104b5780638c39622014610fd15780638da5cb5b14610fa85780639d57be2714610e0b578063a126d60114610da2578063a329e8de14610be6578063aea57ee714610b30578063b0308f6614610b13578063b0f9877514610a2b578063ba46c6e014610a0d578063d27971a41461097e578063d296f7f5146107f0578063d90bb7291461049c578063d960daf71461047c578063e2eed04f1461045e578063e4422919146102a8578063eb02c3011461020e5763f2fde38b146101805780610011565b346102095760203660031901126102095761019961151d565b6101a16119bc565b6001600160a01b039081169182156101f15750600054826001600160601b0360a01b821617600055167f8be0079c531659141344cd1fd0a4f28419497f9722a3daafe3b4186f6b6457e0600080a3005b602490600060405191631e4fbdf760e01b8352820152fd5b600080fd5b50346102095760203660031901126102095760006060604051610230816115fd565b82815282602082015282604082015201523560005260036020526080604060002060405161025d816115fd565b8154918282526001810154602083019081526060600360ff60028501541693604086019415158552015493019283526040519384525160208401525115156040830152516060820152f35b503461020957606036600319011261020957803560243591604435906102e360018060a01b0380600054163314908115610450575b506118e5565b6102f060025485106117c6565b81151580610441575b156103f35782600052600360205260ff600260406000200154166103a1575060207f7a023ddc893835c890074ee698f7a7066838eb2a2a2c6450623bb187d214e46591604051610348816115fd565b85815260038382018381526103946040840160018152606085019242845289600052848852604060002095518655516001860155511515600285019060ff801983541691151516179055565b51910155604051908152a3005b60849060206040519162461bcd60e51b8352820152602560248201527f53656e74696e656c436f72653a20706f736974696f6e20616c72656164792061604482015264637469766560d81b6064820152fd5b60849060206040519162461bcd60e51b8352820152602160248201527f53656e74696e656c436f72653a20616d6f756e74206f7574206f662072616e676044820152606560f81b6064820152fd5b506402540be4008211156102f9565b9050600154163314386102dd565b34610209576000366003190112610209576020600254604051908152f35b3461020957600036600319011261020957602060405164746a5288008152f35b50346102095760403660031901126102095767ffffffffffffffff908035828111610209576104d16104eb91369084016116f6565b91906104db611507565b926104e46119bc565b3691611941565b918251156107a2576001600160a01b03821615610752576002549360405191610513836115fd565b8483526020830160018060a01b03851681526040840191600083526060850193600191828652680100000000000000008a101561072957828a016002556105598a611573565b97909761073e5751908151928311610729575061057687546115c3565b601f81116106de575b50602090601f831160011461064a57936003938361062a9a989461061698947fb23175a7672d7a3f1ee8d6475a301b6ca026e7defa7bef314817383e8c01c2ef9d9b9860009261063f575b505060001982881b1c191690821b1786555b85019060018060a01b039051166001600160601b0360a01b82541617905551600284015551151591019060ff801983541691151516179055565b604051928392604084526040840190611533565b6001600160a01b0390911660208301520390a2005b0151905038806105ca565b90601f198316918860005260206000209260005b8181106106c85750948461061698947fb23175a7672d7a3f1ee8d6475a301b6ca026e7defa7bef314817383e8c01c2ef9d9b9894839461062a9e9c9860039a106106b0575b505050811b0186556105dc565b0151600019838a1b60f8161c191690553880806106a3565b828401518555938601936020938401930161065e565b876000526020600020601f840160051c8101916020851061071f575b601f0160051c019084905b82811061071357505061057f565b60008155018490610705565b90915081906106fa565b604190634e487b7160e01b6000525260246000fd5b600082634e487b7160e01b82525260246000fd5b60849060206040519162461bcd60e51b8352820152602360248201527f53656e74696e656c436f72653a207a65726f20636f6e7472616374206164647260448201526265737360e81b6064820152fd5b60849060206040519162461bcd60e51b8352820152602160248201527f53656e74696e656c436f72653a20656d7074792070726f746f636f6c206e616d6044820152606560f81b6064820152fd5b5034610209576040366003190112610209578035906024359160ff83168093036102095761082960018060a01b03600154163314611724565b61083660025482106117c6565b60ff600361084383611573565b500154161561093057610859606484111561177a565b600261086482611573565b500180549264746a52880084106108d757507f3f4072b3a19c6f0b735eadcdd115f58491f27df6a0d335cb674dc9c2946b2dc5608060209565048c273950006108ae6005546118c0565b9687958660055554926040519384528984015210156040820152426060820152a3604051908152f35b60849060206040519162461bcd60e51b8352820152602c60248201527f53656e74696e656c436f72653a206578706f737572652062656c6f7720616c6560448201526b1c9d081d1a1c995cda1bdb1960a21b6064820152fd5b60405162461bcd60e51b8152602081840152602160248201527f53656e74696e656c436f72653a2070726f746f636f6c206e6f742061637469766044820152606560f81b6064820152608490fd5b503461020957604036600319011261020957357f882c0f76684fad9878fd0e4cdef958f57deb4a16a2b0b92a6d5eee6cd82433bc60406024356109d560018060a01b038060005416331490811561045057506118e5565b6109e260025485106117c6565b60026109ed85611573565b500154908060026109fd87611573565b50015582519182526020820152a2005b50346102095760003660031901126102095760209054604051908152f35b5034610209576060366003190112610209576024359060443567ffffffffffffffff811161020957610a6090369083016116f6565b610a7560018060a01b03600154163314611724565b610a8260025485106117c6565b8015610acf57610ab77f2d11cf4d325972dd622225c2dc0c377b81f62c3c1e1f543a50cd292f141000d3926040923691611941565b602081519101209281519384524260208501523592a3005b60405162461bcd60e51b8152602081850152601f60248201527f53656e74696e656c436f72653a20656d707479206465736372697074696f6e006044820152606490fd5b3461020957600036600319011261020957602060405161012c8152f35b503461020957602036600319011261020957610b4a61151d565b610b526119bc565b6001600160a01b03908116918215610ba25750600154826001600160601b0360a01b821617600155167f71e83775512a9adc081ce3c2e2ba8c8af84c6b5168b472a8c5336f56fdc1a50e600080a3005b60649060206040519162461bcd60e51b8352820152601a60248201527f53656e74696e656c436f72653a207a65726f20616464726573730000000000006044820152fd5b503461020957602036600319011261020957600154813591906001600160a01b0316610c13338214611724565b8215610d5e57815466b1a2bc2ec500008401808511610d49578110610cec57838103908111610cd757600080858194829487555af1610c5061183a565b5015610c89577ff111d3174cf905dfe32c6e23405f873b8afa292dee117c5d31958183453b3af9916040915482519182526020820152a1005b60849060206040519162461bcd60e51b8352820152602160248201527f53656e74696e656c436f72653a204d4e54207472616e73666572206661696c656044820152601960fa1b6064820152fd5b601183634e487b7160e01b6000525260246000fd5b60405162461bcd60e51b8152602081850152603060248201527f53656e74696e656c436f72653a20696e73756666696369656e7420726573657260448201526f766f697220286d696e20666c6f6f722960801b6064820152608490fd5b601184634e487b7160e01b6000525260246000fd5b60405162461bcd60e51b8152602081840152601960248201527f53656e74696e656c436f72653a207a65726f20616d6f756e74000000000000006044820152606490fd5b50346102095760203660031901126102095735610dd360018060a01b038060005416331490811561045057506118e5565b806000526003602052610df060ff6002604060002001541661186a565b6000908152600360205260409020600201805460ff19169055005b50346102095760403660031901126102095780359060243567ffffffffffffffff811161020957610e3f90369083016116f6565b919092610e5760018060a01b03600154163314611724565b8060005260036020526040600020610e7560ff60028301541661186a565b60018101926402540be400845411610f4a578415610f0657507f1d12a934c5e159c81b46026f933f118ab5c5267520741f627d896919c1f134286020956080610ebf6006546118c0565b968794856006555496549080604051948593845260608c850152816060850152848401376000828201840152426040830152601f01601f19168101030190a4604051908152f35b60649060206040519162461bcd60e51b8352820152601a60248201527f53656e74696e656c436f72653a20656d70747920616374696f6e0000000000006044820152fd5b60849060206040519162461bcd60e51b8352820152603160248201527f53656e74696e656c436f72653a20706f736974696f6e2065786365656473206d604482015270617820646566656e736976652073697a6560781b6064820152fd5b34610209576000366003190112610209576000546040516001600160a01b039091168152602090f35b5034610209576020366003190112610209573560025481101561020957610ffa61103591611573565b5061100481611651565b9060018060a01b036001820154169060ff600360028301549201541690604051948594608086526080860190611533565b9260208501526040840152151560608301520390f35b5060003660031901126102095734156110675761002734611978565b60649060206040519162461bcd60e51b8352820152601860248201527f53656e74696e656c436f72653a207a65726f2076616c756500000000000000006044820152fd5b5034610209576000366003190112610209576110c56119bc565b6000808080845481865560018060a01b038254165af16110e361183a565b50156110eb57005b60849060206040519162461bcd60e51b8352820152602360248201527f53656e74696e656c436f72653a20647261696e207472616e73666572206661696044820152621b195960ea1b6064820152fd5b50346102095760203660031901126102095735600052600360205260806040600020805490600181015490600360ff600283015416910154916040519384526020840152151560408301526060820152f35b5034610209576020366003190112610209576111c0600391356111ae6119bc565b6111bb60025482106117c6565b611573565b5001805460ff19169055005b50346102095760208060031936011261020957813591600060606040516111f2816115fd565b8181528285820152826040820152015260025483101561129a5750611218608092611573565b5060405191611226836115fd565b61122f82611651565b835260018060a01b0391826001820154169282850193845261128060ff60036002850154946040890195865201541693606087019415158552604051978897828952519188015260a0870190611533565b935116604085015251606084015251151560808301520390f35b6064916040519162461bcd60e51b8352820152601b60248201527f53656e74696e656c436f72653a20696e76616c696420696e64657800000000006044820152fd5b34610209576000366003190112610209576112f56119bc565b600080546001600160a01b0319811682556001600160a01b03167f8be0079c531659141344cd1fd0a4f28419497f9722a3daafe3b4186f6b6457e08280a3005b5060a03660031901126102095761134a611507565b6064359060ff8216809203610209576001546001600160a01b0391906113739083163314611724565b611380606484111561177a565b341580156113d2575b507f727d8d61311a77632b32d9a9feab712e50bce74dc71b9dd2c46f4cc6dfc4c421916080916040519460443586526020860152608435604086015242606086015216933592a3005b61012c908134029134830414171561142c57916080916127107f727d8d61311a77632b32d9a9feab712e50bce74dc71b9dd2c46f4cc6dfc4c42194048061141d575b50915091611389565b61142690611978565b38611414565b601185634e487b7160e01b6000525260246000fd5b3461020957600036600319011261020957602060405165048c273950008152f35b34610209576000366003190112610209576020600554604051908152f35b34610209576000366003190112610209576001546040516001600160a01b039091168152602090f35b3461020957600036600319011261020957602060405166b1a2bc2ec500008152f35b34610209576000366003190112610209576020600654604051908152f35b3461020957600036600319011261020957806402540be40060209252f35b602435906001600160a01b038216820361020957565b600435906001600160a01b038216820361020957565b919082519283825260005b84811061155f575050826000602080949584010152601f8019910116010190565b60208183018101518483018201520161153e565b6002548110156115ad57600260005260021b7f405787fa12a823e0f2b7631cc41b3ba8828b3321ca811111fa75cd3aa3bb5ace0190600090565b634e487b7160e01b600052603260045260246000fd5b90600182811c921680156115f3575b60208310146115dd57565b634e487b7160e01b600052602260045260246000fd5b91607f16916115d2565b6080810190811067ffffffffffffffff82111761161957604052565b634e487b7160e01b600052604160045260246000fd5b90601f8019910116810190811067ffffffffffffffff82111761161957604052565b90604051918260008254611664816115c3565b908184526020946001916001811690816000146116d45750600114611695575b5050506116939250038361162f565b565b600090815285812095935091905b8183106116bc5750506116939350820101388080611684565b855488840185015294850194879450918301916116a3565b9250505061169394925060ff191682840152151560051b820101388080611684565b9181601f840112156102095782359167ffffffffffffffff8311610209576020838186019501011161020957565b1561172b57565b60405162461bcd60e51b815260206004820152602160248201527f53656e74696e656c436f72653a2063616c6c6572206973206e6f74206167656e6044820152601d60fa1b6064820152608490fd5b1561178157565b60405162461bcd60e51b815260206004820152601d60248201527f53656e74696e656c436f72653a207269736b53636f7265203e203130300000006044820152606490fd5b156117cd57565b60405162461bcd60e51b8152602060048201526024808201527f53656e74696e656c436f72653a20696e76616c69642070726f746f636f6c20696044820152630dcc8caf60e31b6064820152608490fd5b67ffffffffffffffff811161161957601f01601f191660200190565b3d15611865573d9061184b8261181e565b91611859604051938461162f565b82523d6000602084013e565b606090565b1561187157565b60405162461bcd60e51b815260206004820152602160248201527f53656e74696e656c436f72653a20706f736974696f6e206e6f742061637469766044820152606560f81b6064820152608490fd5b60001981146118cf5760010190565b634e487b7160e01b600052601160045260246000fd5b156118ec57565b60405162461bcd60e51b815260206004820152602760248201527f53656e74696e656c436f72653a2063616c6c6572206e6f74206f776e6572206f6044820152661c881859d95b9d60ca1b6064820152608490fd5b92919261194d8261181e565b9161195b604051938461162f565b829481845281830111610209578281602093846000960137010152565b6004548181018091116118cf578060045560405191825260208201527fb8124c1d24767bf729275e9a34ecb8a395e947352c3ff38c149a36576a1fa59460403392a2565b6000546001600160a01b031633036119d057565b60405163118cdaa760e01b8152336004820152602490fdfea264697066735822122002df76e0b702538dcd60db57f6164fb089229887e24640263f2577c79f3cffb564736f6c63430008190033b23175a7672d7a3f1ee8d6475a301b6ca026e7defa7bef314817383e8c01c2ef",
  "linkReferences": {},
  "deployedLinkReferences": {}
}