{
  "_format": "hh-sol-artifact-1",
  "contractName": "ERC8004IdentityRegistry",
  "sourceName": "src/ERC8004IdentityRegistry.sol",
  "abi": [
    {
      "inputs": [
        {
          "internalType": "address",
          "name": "_owner",
          "type": "address"
        }
      ],
      "stateMutability": "nonpayable",
      "type": "constructor"
    },
    {
      "anonymous": false,
      "inputs": [
        {
          "indexed": true,
          "internalType": "uint256",
          "name": "agentId",
          "type": "uint256"
        },
        {
          "indexed": false,
          "internalType": "uint256",
          "name": "timestamp",
          "type": "uint256"
        }
      ],
      "name": "AgentDeactivated",
      "type": "event"
    },
    {
      "anonymous": false,
      "inputs": [
        {
          "indexed": true,
          "internalType": "uint256",
          "name": "agentId",
          "type": "uint256"
        },
        {
          "indexed": false,
          "internalType": "string",
          "name": "name",
          "type": "string"
        },
        {
          "indexed": true,
          "internalType": "address",
          "name": "operator",
          "type": "address"
        },
        {
          "indexed": false,
          "internalType": "uint256",
          "name": "timestamp",
          "type": "uint256"
        }
      ],
      "name": "AgentRegistered",
      "type": "event"
    },
    {
      "anonymous": false,
      "inputs": [
        {
          "indexed": true,
          "internalType": "uint256",
          "name": "agentId",
          "type": "uint256"
        },
        {
          "indexed": false,
          "internalType": "string",
          "name": "field",
          "type": "string"
        },
        {
          "indexed": false,
          "internalType": "uint256",
          "name": "timestamp",
          "type": "uint256"
        }
      ],
      "name": "AgentUpdated",
      "type": "event"
    },
    {
      "inputs": [
        {
          "internalType": "uint256",
          "name": "",
          "type": "uint256"
        }
      ],
      "name": "agents",
      "outputs": [
        {
          "internalType": "string",
          "name": "name",
          "type": "string"
        },
        {
          "internalType": "string",
          "name": "agentURI",
          "type": "string"
        },
        {
          "internalType": "string",
          "name": "capabilities",
          "type": "string"
        },
        {
          "internalType": "address",
          "name": "operator",
          "type": "address"
        },
        {
          "internalType": "uint256",
          "name": "registeredAt",
          "type": "uint256"
        },
        {
          "internalType": "bool",
          "name": "active",
          "type": "bool"
        }
      ],
      "stateMutability": "view",
      "type": "function"
    },
    {
      "inputs": [
        {
          "internalType": "uint256",
          "name": "agentId",
          "type": "uint256"
        }
      ],
      "name": "deactivateAgent",
      "outputs": [],
      "stateMutability": "nonpayable",
      "type": "function"
    },
    {
      "inputs": [
        {
          "internalType": "uint256",
          "name": "agentId",
          "type": "uint256"
        }
      ],
      "name": "getAgent",
      "outputs": [
        {
          "components": [
            {
              "internalType": "string",
              "name": "name",
              "type": "string"
            },
            {
              "internalType": "string",
              "name": "agentURI",
              "type": "string"
            },
            {
              "internalType": "string",
              "name": "capabilities",
              "type": "string"
            },
            {
              "internalType": "address",
              "name": "operator",
              "type": "address"
            },
            {
              "internalType": "uint256",
              "name": "registeredAt",
              "type": "uint256"
            },
            {
              "internalType": "bool",
              "name": "active",
              "type": "bool"
            }
          ],
          "internalType": "struct ERC8004IdentityRegistry.AgentIdentity",
          "name": "",
          "type": "tuple"
        }
      ],
      "stateMutability": "view",
      "type": "function"
    },
    {
      "inputs": [
        {
          "internalType": "uint256",
          "name": "agentId",
          "type": "uint256"
        }
      ],
      "name": "isRegistered",
      "outputs": [
        {
          "internalType": "bool",
          "name": "",
          "type": "bool"
        }
      ],
      "stateMutability": "view",
      "type": "function"
    },
    {
      "inputs": [],
      "name": "owner",
      "outputs": [
        {
          "internalType": "address",
          "name": "",
          "type": "address"
        }
      ],
      "stateMutability": "view",
      "type": "function"
    },
    {
      "inputs": [
        {
          "internalType": "uint256",
          "name": "agentId",
          "type": "uint256"
        },
        {
          "internalType": "string",
          "name": "name",
          "type": "string"
        },
        {
          "internalType": "string",
          "name": "agentURI",
          "type": "string"
        },
        {
          "internalType": "string",
          "name": "capabilities",
          "type": "string"
        }
      ],
      "name": "registerAgent",
      "outputs": [
        {
          "internalType": "uint256",
          "name": "",
          "type": "uint256"
        }
      ],
      "stateMutability": "nonpayable",
      "type": "function"
    },
    {
      "inputs": [],
      "name": "totalAgents",
      "outputs": [
        {
          "internalType": "uint256",
          "name": "",
          "type": "uint256"
        }
      ],
      "stateMutability": "view",
      "type": "function"
    },
    {
      "inputs": [
        {
          "internalType": "uint256",
          "name": "agentId",
          "type": "uint256"
        },
        {
          "internalType": "string",
          "name": "newURI",
          "type": "string"
        }
      ],
      "name": "updateAgentURI",
      "outputs": [],
      "stateMutability": "nonpayable",
      "type": "function"
    }
  ],
  "bytecode": "0x60a034607457601f610d8c38819003918201601f19168301916001600160401b03831184841017607957808492602094604052833981010312607457516001600160a01b0381168103607457608052604051610cfc908161009082396080518181816105990152818161060d01526109c10152f35b600080fd5b634e487b7160e01b600052604160045260246000fdfe6080604052600436101561001257600080fd5b60003560e01c806311ba6b4a146109a05780632de5aaf71461087b578063513856c8146107cc578063579a6988146107815780636b595822146105c85780638da5cb5b14610583578063c5053712146105655763de0fff4a1461007457600080fd5b346105605760803660031901126105605760243567ffffffffffffffff8111610560576100a5903690600401610baf565b60443567ffffffffffffffff8111610560576100c5903690600401610baf565b9060643567ffffffffffffffff8111610560576100e6903690600401610baf565b841561051b5760043560005260006020526004604060002001546104c25761012c610138936040519561011887610acc565b61012336898b610c7f565b87523691610c7f565b60208501523691610c7f565b6040820152336060820152426080820152600160a082015260043560005260006020526040600020815180519067ffffffffffffffff82116103ce57610188826101828554610a92565b85610c29565b602090601f8311600114610456576101b9929160009183610355575b50508160011b916000199060031b1c19161790565b81555b602082015180519067ffffffffffffffff82116103ce576101ed826101e46001860154610a92565b60018601610c29565b602090601f83116001146103e45761021d9291600091836103555750508160011b916000199060031b1c19161790565b60018201555b60028101604083015180519067ffffffffffffffff82116103ce5761024c826101828554610a92565b602090601f8311600114610360578260a0959360059593610283936000926103555750508160011b916000199060031b1c19161790565b90555b60038101600180851b036060860151166bffffffffffffffffffffffff851b8254161790556080840151600482015501910151151560ff80198354169116179055600154600019811461033f5760010160015580604051926040845281604085015260608401376000606082840101524260208301527fb71aae75f83d64a3d5e29ebd26bfad7720610b9e94f288a0c62994ecb5ca7f9d339260608160043594601f80199101168101030190a360206040516004358152f35b634e487b7160e01b600052601160045260246000fd5b0151905038806101a4565b90601f198316918460005260206000209260005b8181106103b6575092600192859260a09896600598961061039d575b505050811b019055610286565b015160001960f88460031b161c19169055388080610390565b92936020600181928786015181550195019301610374565b634e487b7160e01b600052604160045260246000fd5b9190600184016000526020600020906000935b601f198416851061043b576001945083601f19811610610422575b505050811b016001820155610223565b015160001960f88460031b161c19169055388080610412565b818101518355602094850194600190930192909101906103f7565b9190836000526020600020906000935b601f19841685106104a7576001945083601f1981161061048e575b505050811b0181556101bc565b015160001960f88460031b161c19169055388080610481565b81810151835560209485019460019093019290910190610466565b60405162461bcd60e51b815260206004820152602b60248201527f455243383030344964656e746974793a206167656e74496420616c726561647960448201526a081c9959da5cdd195c995960aa1b6064820152608490fd5b60405162461bcd60e51b815260206004820152601b60248201527f455243383030344964656e746974793a20656d707479206e616d6500000000006044820152606490fd5b600080fd5b34610560576000366003190112610560576020600154604051908152f35b34610560576000366003190112610560576040517f00000000000000000000000000000000000000000000000000000000000000006001600160a01b03168152602090f35b346105605760403660031901126105605767ffffffffffffffff600435602435828111610560576105fd903690600401610baf565b61063d60018060a09694961b03807f0000000000000000000000000000000000000000000000000000000000000000163314908115610764575b50610bdd565b82600052602093600060205260019060016040600020019383116103ce5761066f836106698654610a92565b86610c29565b600091601f84116001146106fd57506106a4939495509082916000926106f25750508160011b916000199060031b1c19161790565b90555b7f150cd089408b0f5f4a0002310b75a112412f1bc8d9d4463e97da392283893a1660806040516040815260086040820152676167656e7455524960c01b6060820152426020820152a2005b0135905085806101a4565b600085815260208120601f198616989094925b89831061074d5750505083600195969710610733575b505050811b0190556106a7565b0135600019600384901b60f8161c19169055848080610726565b848401358655948501949281019291810191610710565b905084600052600060205260036040600020015416331486610637565b34610560576020366003190112610560576004356000526000602052602060406000206004810154151590816107bd575b506040519015158152f35b60ff91506005015416826107b2565b3461056057602036600319011261056057600435600052600060205261084960406000206107f981610b0a565b9061080660018201610b0a565b61081260028301610b0a565b9161086560018060a01b036003830154169361085760ff60056004860154950154169460405198899860c08a5260c08a0190610a52565b9088820360208a0152610a52565b908682036040880152610a52565b9260608501526080840152151560a08301520390f35b3461056057602080600319360112610560576040519061089a82610acc565b600060a0606093848152848482015284604082015282858201528260808201520152600435600052600081526040600020604051926108d884610acc565b6108e182610b0a565b84526108ef60018301610b0a565b9183850192835261090260028201610b0a565b6040860190815261098660018060a01b0391826003850154169585890196875260ff600560048701549660808c019788520154169560a08a0196151587526109766109608a60c06040519d8e9d8e5251918d015260e08c0190610a52565b925192601f1993848c83030160408d0152610a52565b9251918984030190890152610a52565b93511660808501525160a084015251151560c08301520390f35b34610560576020366003190112610560576004356109f060018060a01b03807f0000000000000000000000000000000000000000000000000000000000000000163314908115610a355750610bdd565b806000526000602052600560406000200160ff1981541690557f0b69d5ec2a1fb8f6ccb495208da819a90a3ba49eabd4e1ff66ba3ad7425c0f3e6020604051428152a2005b905082600052600060205260036040600020015416331483610637565b919082519283825260005b848110610a7e575050826000602080949584010152601f8019910116010190565b602081830181015184830182015201610a5d565b90600182811c92168015610ac2575b6020831014610aac57565b634e487b7160e01b600052602260045260246000fd5b91607f1691610aa1565b60c0810190811067ffffffffffffffff8211176103ce57604052565b90601f8019910116810190811067ffffffffffffffff8211176103ce57604052565b90604051918260008254610b1d81610a92565b90818452602094600191600181169081600014610b8d5750600114610b4e575b505050610b4c92500383610ae8565b565b600090815285812095935091905b818310610b75575050610b4c9350820101388080610b3d565b85548884018501529485019487945091830191610b5c565b92505050610b4c94925060ff191682840152151560051b820101388080610b3d565b9181601f840112156105605782359167ffffffffffffffff8311610560576020838186019501011161056057565b15610be457565b60405162461bcd60e51b815260206004820152601f60248201527f455243383030344964656e746974793a206e6f7420617574686f7269736564006044820152606490fd5b90601f8111610c3757505050565b6000916000526020600020906020601f850160051c83019410610c75575b601f0160051c01915b828110610c6a57505050565b818155600101610c5e565b9092508290610c55565b92919267ffffffffffffffff82116103ce5760405191610ca9601f8201601f191660200184610ae8565b82948184528183011161056057828160209384600096013701015256fea2646970667358221220fdcb61276c69ea9e4b92863c65a48e16947fb1f5d515993d48ed90247ea4262564736f6c63430008190033",
  "linkReferences": {},
  "deployedLinkReferences": {}
}